S0160000415453414D335838435F544553542E73726563F3
S214080000F825072001090800FD080800FD08080073
S214080010FD080800FD080800FD08080000000000AC
S214080020000000000000000000000000FD080800B6
S214080030FD08080000000000FD080800FD0808008C
S214080040FD080800FD080800FD080800FD0808006F
S214080050FD080800FD080800FD080800FD0808005F
S214080060FD0808000000000000000000D10308009A
S214080070E503080000000000000000000000000083
S21408008000000000FD080800FD080800FD0808003C
S21408009000000000FD080800FD080800FD0808002C
S2140800A0FD08080000000000FD080800FD0808001C
S2140800B0FD080800FD080800FD080800FD080800FF
S2140800C0FD08080000000000000000000000000016
S2140800D0FD080800FD080800FD080800FD080800DF
S2140800E0FD080800FD080800FD080800FD080800CF
S2140800F0FD08080010B5054C237833B9044B13B136
S2140801000448AFF300800123237010BD680507205C
S214080110000000002C0E0800084B10B51BB108485C
S2140801200849AFF300800848036803B910BD074BB9
S214080130002BFBD0BDE81040184700BF00000000A9
S2140801402C0E08006C0507202C0E08000000000086
S214080150036843F080030360704700BF436A23F0D8
S214080160FF0319434162704700EB4111D1F81002B2
S214080170704700BF0B680A7982B9DBB200EB431000
S2140801800023C0F80032C0F80432C0F80832C0F8BD
S2140801901432C0F81832C0F81C32704730B4DBB2DC
S2140801A000EB4312D2F80042CD7924F4702444EAD6
S2140801B00544C2F800424C7954B1CC6844F0005467
S2140801C0C2F804420C6944F00054C2F8084207E03A
S2140801D0CC68C2F804420C6900EB4313C3F8084223
S2140801E0D2F80032097923F0E06343EA0163C2F8E3
S2140801F0003230BC704700BF0B7800EB4312D2F8D1
S21408020010228A6012F4000F26D010B44A793AB148
S2140802100A6942F0005200EB4314C4F8082204E0CE
S2140802200C6900EB4312C2F808428C6900EB4312D3
S214080230C2F814428A79042A04D9CC6900EB43121E
S214080240C2F818428A79120402F4702200EB4310AE
S214080250C0F81C22002001E0012070475DF8044B1E
S214080260704700BF70B588B0064600248DF8044075
S214080270044D009430466946A8470134082CF8D146
S21408028008B070BD75010800F8B546F2A81303FB60
S21408029002F40B19013BB3FBF4F3802B64D84FF43C
S2140802A0FA5404FB02F4B4EB510F5FD84FF47A7398
S2140802B003FB02F208274FF0FF363B46B1FBF4F586
S2140802C0802D06D804FB1515B54202D23DB12E4640
S2140802D01F460133DBB214441A2BEFD100E01F4649
S2140802E002FB07F2B1FBF2F1CBB2012B40D9044670
S2140802F0083F036823F0010303601E487D00EE19DB
S21408030000EB4606B378013B1B0103F070027378D6
S214080310013B1B0203F4E0631343F278013A02F050
S21408032007021A433379013B1B0303F440531A436D
S214080330C9B24B1E1B0403F4FE0313436361204635
S2140803400D4B9847236843F00103236000230B49AD
S2140803502269013312F4001F01D18B42F8D10748F5
S214080360181A18BF0120F8BD0020F8BD0020F8BDF7
S2140803700020F8BD940D080065020800A08601005C
S2140803802DE9F041044688460E4B98470546204618
S2140803900D4B9847054013D00C4C04F160062368B3
S2140803A0434508D16168294205D0E3684046984726
S2140803B0636825EA0305B44202D01034002DEED156
S2140803C0BDE8F081890508008D050800840507202A
S2140803D008B502480B21024B984708BD000E0E4090
S2140803E08103080008B502480C21024B984708BD4F
S2140803F000100E408103080010B50E480E4B9847B3
S21408040000203E210D4B98470D4CA0470028FCD0F5
S2140804100C4B98470C4A0D4B9A620D4CA047002887
S214080420FCD010200B4B98470B4B98470148024BC3
S214080430984710BD00BD0105B1000720F905080062
S2140804404D0608005D060800013F0D2000060E4018
S2140804506D06080091050800B10908000163704799
S214080460416370474264B1F1805F16D004D8C1B1C9
S214080470B1F1006F0AD013E0B1F1405F11D0B1F1CD
S214080480605F0ED0B1F1205F0AD17047036F016F2D
S2140804900B4023EA0203036702E0036F1343036774
S2140804A042607047416412F0010F14BF416601664E
S2140804B012F00A0F14BF0162416212F0020F02D056
S2140804C0C0F8801004E012F0080F18BFC0F88410B7
S2140804D041610160704700BF10B44164019C0CB1D3
S2140804E0416600E001660BB1016500E041650AB1AE
S2140804F0016300E04163016101605DF8044B7047E9
S214080500F0B583B007460C4616461D46B1F1205F87
S2140805101AD006D8B1F1006F0AD0B1F1805F07D0C3
S21408052028E0B1F1405F15D0B1F1605F12D021E04C
S214080530384621463246114B984715F0010F14BF2E
S2140805407E663E66012016E011461A460C4B984712
S214080550012010E005F00103009338463146B4F157
S214080560605F14BF00220122C5F38003054CA04734
S214080570012000E0002003B0F0BD00BF65040800BD
S214080580A5040800D9040800C06C7047806C704742
S214080590184A136B23F0700318431063936E13F016
S2140805A0080F03D009E0013B03D11EE04FF40063B7
S2140805B010498A6E12F0080FF5D00E4A136B23F016
S2140805C0030343F002031363906E10F0080004D090
S2140805D000207047013B03D109E04FF4006305494A
S2140805E08A6E12F0080FF5D0704701207047012078
S2140805F0704700BF00060E4038B111490B6A114A11
S2140806001A40114B13430B6270470D4A136A23F4C2
S2140806105C1323F0030343F45C1343F0010309025D
S21408062089B20B431362936E13F0010FFBD0044A92
S214080630136A43F09B7343F480331362704700BF1A
S21408064000060E40FCFFC8FE02003701024B986EFB
S21408065000F48030704700BF00060E404FF000528E
S214080660014B9A62704700BF00060E40024B986E18
S21408067000F00200704700BF00060E402C281ED867
S2140806801F280CD8114B9A69012383401A409342BD
S21408069017D0012383400D4A1361002070470B4B87
S2140806A0D3F808212038012383401A4093420AD001
S2140806B001238340054AC2F8003100207047012014
S2140806C07047002070470020704700BF00060E40A5
S2140806D02DE9F04788B00125364B1D70BFF35F8FB4
S2140806E062B60B20344CA0470C20A047DFF8FC80ED
S2140806F0009540464FF4F861002213462F4EB04747
S214080700009540460F2100221346B0472C482D4B33
S2140807109847DFF8DC90009548464FF440612A4633
S2140807200023B04748464FF000614FF4406200236C
S214080730254FB84700250595069507954FF4E133EC
S2140807400293C02303934FF4006304931120A04739
S214080750DFF8A0A01D4E504602A932461C4B98470B
S21408076050461C4B984748464FF0006103222B46DC
S214080770B84740464FF000614FF440422B46B84712
S2140807802B20A0472C20A047134D28463146FA2296
S214080790124FB847124C20463146FA22B847284628
S2140807A0104DA8472046A84720460F4B984708B044
S2140807B0BDE8F087380107207D060800D904080040
S2140807C0501A0E40F508080001050800007A030ACA
S2140807D085080800D908080000400B408902080070
S2140807E000800B40650208005101080000100E400A
S2140807F0000E0E400080094010B40B0193420FD93A
S2140808001CE002F00702416841F40021416043EA17
S2140808100242026200201EE001201CE001201AE0CD
S214080820D20002EB5302B2FBF3F2D3085C1E4FF67B
S214080830FE718C42F0D802F00702E8E7C900D20041
S21408084002EB5102B2FBF1F2D3085C1E4FF6FE71C2
S2140808508C42D6D9E2E75DF8044B7047084BC0F8DF
S214080860E4300023436043628362882303602423C2
S21408087003604FF4807303604FF4002303607047EF
S2140808800041535570B505460C4616460F4B98471B
S21408089000220F4B1A609CB12846216832460D4B41
S2140808A09847024670B9A1686368194323691943D3
S2140808B0E3680B4306490B6069680B436B6002E00C
S2140808C0012200E00122104670BD00BF5D08080046
S2140808D0F4050720F907080040230360704700BFA7
S2140808E0436913F0020FFBD0C1F30801C161002071
S2140808F0704700BF4FF4004343607047FEE700BFF1
S21408090008B51F4B1F4A9A4203D01F4B1C4A9A42EF
S21408091004D31E4B1E4A9A4210D31BE018490A1DE0
S2140809201C4B9B1A23F003030433164A134452F84D
S214080930040B41F8040B9A42F9D1EAE7164B174A1A
S214080940D21A22F003021A44043B002143F8041B7F
S2140809509342FBD1124B23F0604222F07F021149EA
S2140809608A6003F16043B3F5801F03D28B6843F0B7
S21408097000538B600C4B98470C4B9847FEE700BF1C
S214080980000007202C0E080068050720F805072039
S214080990680507206B0507206C050720FB05072060
S2140809A00000080000ED00E0550C0800CD0A08001D
S2140809B03E4B1B6B03F00303032B5FD8DFE803F003
S2140809C0020E2B2B3A4B5B6913F0800F14BF4FF4C3
S2140809D000424FF4FA42374B1A604FE0334B1B6A1B
S2140809E013F0807F03D0344A324B1A6046E0334A0D
S2140809F0304B1A602D4B1B6A03F07003102B02D085
S214080A00202B04D03AE02E4A2A4B1A6036E02A4AAF
S214080A10284B1A6032E0254B1B6A13F0807F03D000
S214080A20254A244B1A6012E0244A224B1A601F4BB0
S214080A301B6A03F07003102B02D0202B04D006E0AC
S214080A401F4A1C4B1A6002E01B4A1A4B1A60174BC7
S214080A501B6B03F00303022B0DD1144A936A926AA8
S214080A601448C3F30A41036801FB0333D2B2B3FB4D
S214080A70F2F3036002E0134A0E4B1A600B4B1B6B33
S214080A8003F07003702B07D10A4A13680E49A1FBBE
S214080A9003135B0813607047044B1A6B0549C2F3CF
S214080AA002120B68D3400B60704700BF00060E406A
S214080AB0101A0E403C010720001BB70000093D0035
S214080AC000127A00001C4E0EABAAAAAA2DE9F04323
S214080AD089B04E4B98474E4B98474E4C20460121BE
S214080AE0DFF84881C0474C4E30464C4DA847204654
S214080AF001214B4FB8473046A84720460121C0473A
S214080B003046A84720460121B84720460821C04756
S214080B10444E3046A84720464021C0473046A8479E
S214080B2020464021B8473046A84720464FF48071F3
S214080B30C0473046A84720464FF48071B84730462D
S214080B40A84720464FF40071C0473046A8472046BD
S214080B504FF40071B8473046A84720468021C04762
S214080B603046A84720468021B8473046A847204642
S214080B704FF48061C0473046A84720464FF480614E
S214080B80B84720460821B847DFF8C090DFF8C0808D
S214080B90254E20460821B84720460421234B98476F
S214080BA023487321234B98470023009303228DF88C
S214080BB004200F228DF807208DF8053003931E4D6C
S214080BC0284669461D4B98474FF4E0130493CDF822
S214080BD01890CDF81C8008238DF8063028466946FC
S214080BE0174B984728460121164B9847204604215C
S214080BF0B847154D03E0204608210C4B9847304669
S214080C000021A84710F4000FF5D0C2E7F903080042
S214080C10D106080000100E40E093040001000720EB
S214080C2061040800C027090000400B405D04080066
S214080C3000800940E108080000800B4075010800A4
S214080C40F90108005D0108006901080078563412A9
S214080C502143658770B50F4E0F4D761BB61018BF2B
S214080C60002405D0013455F8043B9847A642F9D12C
S214080C700A4E0B4D00F0C8F8761BB61018BF0024B5
S214080C8006D0013455F8043B9847A642F9D170BD02
S214080C9070BD00BF140E0800140E08001C0E0800D5
S214080CA0140E0800024B13B1024800F005B870474E
S214080CB000000000C50C0800014600200246034656
S214080CC000F016B838B5084B084DED1AAC1018BF2A
S214080CD0ED1805D0013C55F8043D9847002CF9D18D
S214080CE0BDE8384000F09AB8280E08002C0E080018
S214080CF02DE9F047254C064625688846D5F848412C
S214080D0092469946C4B360681F2817DC411C76B122
S214080D1004EB8003C3F888A0D4F8885101228240E7
S214080D201543022EC4F88851C3F808911ED0831CB8
S214080D306160002044F82380BDE8F087144B03B3B5
S214080D404FF4C870AFF300800446D0B1D5F84831E8
S214080D50002784E888003846C5F848410121C4F8C9
S214080D608871C4F88C71002EE1D0D1E7D4F88C31A4
S214080D701A43C4F88C21DAE705F5A674C5F8484185
S214080D80C1E74FF0FF30BDE8F08700BF040E08004B
S214080D900000000008030202034B09020303024393
S214080DA00A03030303460B04030304480C03040462
S214080DB004430D040404044D0E04040504400F0403
S214080DC005050443100505050445110605050447F1
S214080DD01205060604431306060604441407060608
S214080DE004461508060604471607070704441708A6
S214080DF0080704461807080804431908080804449E
S214080E004300000040010720F8B500BFF8BC08BC46
S214080E109E467047A50C080019010800F8B500BFE3
S210080E20F8BC08BC9E467047F5000800A9
S214080E2CBFF35F8F0138FBD1704700BF4FF4806368
S214080E3C204A136002F5007213601F4B1B6A13F0EE
S214080E4C807F07D11D4A1C4B1A621A46936E13F004
S214080E5C010FFBD01A4A184B1A621A46936E13F4F3
S214080E6C803FFBD0144A136B23F0030343F00103B3
S214080E7C1363936E13F0080FFBD0124A0E4B9A624C
S214080E8C1A46936E13F0020FFBD011220A4B1A6304
S214080E9C1A46936E13F0080FFBD01222064B1A63F1
S214080EAC1A46936E13F0080FFBD0074A074B1A60C6
S214080EBC704700BF000A0E4000060E4009083700AF
S214080ECC09083701013F0D2000BD01053C0107202C
S214080EDC1B4B984206D800231A4A136002F5007278
S214080EEC13607047184B984207D84FF48073154A0E
S214080EFC136002F5007213607047144B984207D8BB
S214080F0C4FF400730F4A136002F5007213607047B3
S214080F1C0F4B984207D84FF440730A4A136002F5F1
S214080F2C0072136070470B4B984294BF4FF4806363
S214080F3C4FF4A063034A136002F5007213607047FF
S214080F4CBFEA2101000A0E407FF0FA02FF8FD00399
S214080F5CFFB3C4047F4A5D050100000000093D008C
S214080F6C000000002C04072094040720FC0407202B
S214080F7C0000000000000000000000000000000058
S214080F8C0000000000000000000000000000000048
S214080F9C00000000000E0800000000000000000022
S214080FAC0000000000000000000000000000000028
S214080FBC0000000000000000000000000000000018
S214080FCC0000000000000000000000000000000008
S214080FDC00000000000000000000000000000000F8
S214080FEC00000000000000000000000000000000E8
S214080FFC00000000000000000000000000000000D8
S21408100C00000000000000000100000000000000C6
S21408101C0E33CDAB34126DE6ECDE05000B0000008B
S21408102C00000000000000000000000000000000A7
S21408103C0000000000000000000000000000000097
S21408104C0000000000000000000000000000000087
S21408105C0000000000000000000000000000000077
S804080901E9
