:0200000280007C
:10000000E8250720D1030800CD030800CD03080030
:10001000CD030800CD030800CD0308000000000058
:10002000000000000000000000000000CD030800F8
:10003000CD03080000000000CD030800CD03080038
:10004000CD030800CD030800CD030800CD03080050
:10005000CD030800CD030800CD030800CD03080040
:10006000CD03080000000000000000006502080049
:1000700079020800000000000000000000000000FD
:1000800000000000CD030800CD030800CD030800E8
:1000900000000000CD030800CD030800CD030800D8
:1000A000CD03080000000000CD030800CD030800C8
:1000B000CD030800CD030800CD030800CD030800E0
:1000C000CD03080000000000000000000000000058
:1000D000CD030800CD030800CD030800CD030800C0
:1000E000CD030800CD030800CD030800CD030800B0
:1000F000CD03080010B5054C237833B9044B13B178
:100100000448AFF300800123237010BD5805072079
:10011000000000006C070800084B10B51BB1084830
:100120000849AFF300800848036803B910BD074BC6
:10013000002BFBD0BDE81040184700BF00000000B6
:100140006C0708005C0507206C0708000000000031
:1001500010B50E480E4B984700203E210D4B984796
:100160000D4CA0470028FCD00C4B98470C4A0D4B77
:100170009A620D4CA0470028FCD010200B4B9847EA
:100180000B4B98470148024B984710BD00BD010535
:10019000A5000720F50208004903080059030800DC
:1001A000013F0D2000060E40690308008D02080083
:1001B0008104080010B44164019C0CB1416600E068
:1001C00001660BB1016500E041650AB1016300E021
:1001D0004163016101605DF8044B7047C06C70477A
:1001E000806C7047430903F5001303F207735B0249
:1001F00000F01F00012282401A637047430903F593
:10020000001303F207735B0200F01F00012282401B
:100210005A6370472DE9F041044688460E4B9847D3
:10022000054620460D4B9847054013D00C4C04F171
:1002300060062368434508D16168294205D0E36818
:1002400040469847636825EA0305B44202D010345B
:10025000002DEED1BDE8F081DD010800E1010800CC
:100260007405072008B502480B21024B984708BDCA
:10027000000E0E401502080008B502480C21024B82
:10028000984708BD00100E4015020800184A136B6D
:1002900023F0700318431063936E13F0080F03D01C
:1002A00009E0013B03D11EE04FF4006310498A6E60
:1002B00012F0080FF5D00E4A136B23F0030343F03E
:1002C00002031363906E10F0080004D00020704702
:1002D000013B03D109E04FF4006305498A6E12F037
:1002E000080FF5D07047012070470120704700BF0C
:1002F00000060E4038B111490B6A114A1A40114BE1
:1003000013430B6270470D4A136A23F45C1323F006
:10031000030343F45C1343F00103090289B20B4366
:100320001362936E13F0010FFBD0044A136A43F07B
:100330009B7343F480331362704700BF00060E4086
:10034000FCFFC8FE02003701024B986E00F48030BB
:10035000704700BF00060E404FF00052014B9A62FA
:10036000704700BF00060E40024B986E00F002007E
:10037000704700BF00060E402C281ED81F280CD83E
:10038000114B9A69012383401A40934217D00123ED
:1003900083400D4A1361002070470B4BD3F80821AE
:1003A0002038012383401A4093420AD0012383401E
:1003B000054AC2F800310020704701207047002034
:1003C00070470020704700BF00060E40FEE700BFE8
:1003D00008B51F4B1F4A9A4203D01F4B1C4A9A4232
:1003E00004D31E4B1E4A9A4210D31BE018490A1D23
:1003F0001C4B9B1A23F003030433164A134452F890
:10040000040B41F8040B9A42F9D1EAE7164B174A5C
:10041000D21A22F003021A44043B002143F8041BC1
:100420009342FBD1124B23F0604222F07F0211492C
:100430008A6003F16043B3F5801F03D28B6843F0F9
:1004400000538B600C4B98470C4B9847FEE700BF5E
:10045000000007206C07080058050720E405072066
:10046000580507205B0507205C050720E7050720E6
:100470000000080000ED00E0010608009D050800EE
:100480003E4B1B6B03F00303032B5FD8DFE803F045
:10049000020E2B2B3A4B5B6913F0800F14BF4FF405
:1004A00000424FF4FA42374B1A604FE0334B1B6A5D
:1004B00013F0807F03D0344A324B1A6046E0334A4F
:1004C000304B1A602D4B1B6A03F07003102B02D0C7
:1004D000202B04D03AE02E4A2A4B1A6036E02A4AF2
:1004E000284B1A6032E0254B1B6A13F0807F03D043
:1004F000254A244B1A6012E0244A224B1A601F4BF3
:100500001B6A03F07003102B02D0202B04D006E0EE
:100510001F4A1C4B1A6002E01B4A1A4B1A60174B09
:100520001B6B03F00303022B0DD1144A936A926AEA
:100530001448C3F30A41036801FB0333D2B2B3FB8F
:10054000F2F3036002E0134A0E4B1A600B4B1B6B75
:1005500003F07003702B07D10A4A13680E49A1FB00
:1005600003135B0813607047044B1A6B0549C2F311
:1005700002120B68D3400B60704700BF00060E40AC
:10058000101A0E402C010720001BB70000093D0087
:1005900000127A00001C4E0EABAAAAAA70B582B057
:1005A000114B98470B20114CA0470C20A047104E30
:1005B0000124009430464FF4F861002213460D4D9B
:1005C000A847009430460F2100221346A847204632
:1005D000094EB0472046094DA8472046B04720465F
:1005E000A847002002B070BD51010800790308003F
:1005F00000100E40B5010800E5010800FD010800EB
:1006000070B50F4E0F4D761BB61018BF002405D0E5
:10061000013455F8043B9847A642F9D10A4E0B4DD8
:1006200000F092F8761BB61018BF002406D00134F3
:1006300055F8043B9847A642F9D170BD70BD00BF84
:1006400054070800540708005C0708005407080016
:10065000024B13B1024800F005B8704700000000DB
:1006600071060800014600200246034600F016B855
:1006700038B5084B084DED1AAC1018BFED1805D071
:10068000013C55F8043D9847002CF9D1BDE83840AD
:1006900000F064B8680708006C0708002DE9F0470F
:1006A000254C064625688846D5F848419246994625
:1006B000C4B360681F2817DC411C76B104EB8003CB
:1006C000C3F888A0D4F88851012282401543022E35
:1006D000C4F88851C3F808911ED0831C61600020C3
:1006E00044F82380BDE8F087144B03B34FF4C8707F
:1006F000AFF300800446D0B1D5F84831002784E834
:1007000088003846C5F848410121C4F88871C4F80A
:100710008C71002EE1D0D1E7D4F88C311A43C4F8A3
:100720008C21DAE705F5A674C5F84841C1E74FF01A
:10073000FF30BDE8F08700BF44070800000000005C
:100740004300000030010720F8B500BFF8BC08BC2A
:100750009E4670475106080019010800F8B500BF11
:0C076000F8BC08BC9E467047F50008007D
:10076C004FF48063204A136002F5007213601F4B34
:10077C001B6A13F0807F07D11D4A1C4B1A621A4664
:10078C00936E13F0010FFBD01A4A184B1A621A46DB
:10079C00936E13F4803FFBD0144A136B23F00303C6
:1007AC0043F001031363936E13F0080FFBD0124A4E
:1007BC000E4B9A621A46936E13F0020FFBD0112265
:1007CC000A4B1A631A46936E13F0080FFBD01222D1
:1007DC00064B1A631A46936E13F0080FFBD0074AA8
:1007EC00074B1A60704700BF000A0E4000060E400F
:1007FC000908370009083701013F0D2000BD01052C
:10080C002C0107201B4B984206D800231A4A136070
:10081C0002F5007213607047184B984207D84FF4DA
:10082C008073154A136002F5007213607047144B05
:10083C00984207D84FF400730F4A136002F5007208
:10084C00136070470F4B984207D84FF440730A4A15
:10085C00136002F50072136070470B4B984294BF03
:10086C004FF480634FF4A063034A136002F50072E7
:10087C0013607047BFEA2101000A0E407FF0FA02B4
:10088C00FF8FD003FFB3C4047F4A5D0500093D0010
:10089C00000000001C04072084040720EC0407203F
:1008AC00000000000000000000000000000000003C
:1008BC00000000000000000000000000000000002C
:1008CC0000000000400708000000000000000000CD
:1008DC00000000000000000000000000000000000C
:1008EC0000000000000000000000000000000000FC
:1008FC0000000000000000000000000000000000EC
:10090C0000000000000000000000000000000000DB
:10091C0000000000000000000000000000000000CB
:10092C0000000000000000000000000000000000BB
:10093C0000000000000000000100000000000000AA
:10094C000E33CDAB34126DE6ECDE05000B0000006F
:10095C00000000000000000000000000000000008B
:10096C00000000000000000000000000000000007B
:10097C00000000000000000000000000000000006B
:10098C00000000000000000000000000000000005B
:04000003800003D1A5
:00000001FF
