:0200000280007C
:10000000B824072075020800710208007102080078
:10001000710208007102080071020800000000006F
:100020000000000000000000000000007102080055
:10003000710208000000000071020800710208004F
:1000400071020800710208007102080071020800C4
:1000500071020800710208007102080071020800B4
:10006000710208000000000000000000C901080043
:10007000DD0108000000000000000000000000009A
:1000800000000000710208007102080071020800FF
:1000900000000000710208007102080071020800EF
:1000A00071020800000000007102080071020800DF
:1000B0007102080071020800710208007102080054
:1000C00071020800000000000000000000000000B5
:1000D0007102080071020800710208007102080034
:1000E0007102080071020800710208007102080024
:1000F0007102080010B5054C237833B9044B13B1D5
:100100000448AFF300800123237010BD28040720AA
:10011000000000007804080008B5064B1BB1064833
:100120000649AFF300800648036813B1054B03B1DD
:10013000984708BD00000000780408002C04072040
:10014000780408000000000010B5029C41640CB166
:10015000416600E001660BB1016500E041650AB14E
:10016000016300E041630161016010BDC06C704734
:10017000806C7047F8B5114B04460E469847104BFB
:10018000054620469847054016D00E4C04F16007FE
:1001900054F80C3CB3420AD154F8081C294206D04A
:1001A00023683046984754F8083C25EA0305BC42CA
:1001B00002D01034002DEBD1F8BD00BF6D01080056
:1001C000710108005004072008B502480B21024BBA
:1001D000984708BD000E0E407501080008B502489A
:1001E0000C21024B984708BD00100E407501080015
:1001F0002C2819D81F280E4B4FF0010208D802FAFC
:1002000000F0996900EA010282420FD018610DE006
:10021000203802FA00F0D3F8081100EA0102824205
:1002200004D0C3F8000101E00120704700207047AE
:1002300000060E4073B50B4C0B20A0470A4D0C2056
:10024000A0470126002228461346084C00964FF48A
:10025000F861A0470022009628460F211346A047C8
:1002600002B070BDF101080000100E404901080005
:10027000FEE70000164B174A10B593421C4601D00A
:10028000002301E0144B07E01449D0188842F9D24A
:10029000E158D1500433F7E7114A934203D20022C8
:1002A00043F8042BF8E70F490F4B21F0604201F1AE
:1002B000604122F07F02B1F5801F9A6003D29A68F4
:1002C00042F000529A60094B9847094B9847FEE765
:1002D00078040800000007202804072028040720CD
:1002E000B40407200000080000ED00E0050308004A
:1002F000F502080008B5024B9847002008BD00BF72
:100300003502080070B50F4E0F4D761BB61007D0A2
:10031000043D0024013455F8043F9847A642F9D122
:100320000A4E0B4D00F096F8761BB61008D0043D2F
:100330000024013455F8043F9847A642F9D170BD16
:1003400070BD00BF60040800600408006804080075
:1003500060040800024B13B1024800F005B8704772
:100360000000000075030800014600200246034615
:1003700000F018B838B5094D094C641BA41018BF1B
:1003800005EB840505D0013C55F8043D9847002C49
:10039000F9D1BDE8384000F067B800BF7404080028
:1003A00078040800F0B5274C85B026680746D6F8D3
:1003B0004841002C40D065681F2D1EDD224818B929
:1003C0004FF0FF3005B0F0BD4FF4C87003910292BA
:1003D0000193AFF3008003990446029A019B002821
:1003E000EED0D6F848510020256060600546C6F87A
:1003F0004841C4F88801C4F88C013FB96B1C002047
:100400000235636044F8251005B0F0BD0126AE400A
:1004100004EB8500C0F88820D4F88821022F42EA36
:100420000602C4F88821C0F80831E7D1D4F88C312D
:100430001E43C4F88C61E1E706F5A674C6F848418E
:10044000B9E700BF500408000000000043000000AE
:1004500000000720F8B500BFF8BC08BC9E467047F6
:100460005503080019010800F8B500BFF8BC08BC26
:080470009E467047F5000800EC
:1004780000000000EC02072054030720BC030720FB
:100488000000000000000000000000000000000064
:100498000000000000000000000000000000000054
:1004A800000000004C0408000000000000000000EC
:1004B8000000000000000000000000000000000034
:1004C8000000000000000000000000000000000024
:1004D8000000000000000000000000000000000014
:1004E8000000000000000000000000000000000004
:1004F80000000000000000000000000000000000F4
:1005080000000000000000000000000000000000E3
:1005180000000000000000000100000000000000D2
:100528000E33CDAB34126DE6ECDE05000B00000097
:1005380000000000000000000000000000000000B3
:1005480000000000000000000000000000000000A3
:100558000000000000000000000000000000000093
:100568000000000000000000000000000000000083
:040000038000027502
:00000001FF
