:0200000280007C
:10000000500800205901080055010800550108005A
:1000100055010800550108005501080000000000C6
:100020000000000000000000000000005501080072
:1000300055010800000000005501080055010800A6
:100040005501080055010800550108005501080038
:100050005501080055010800550108005501080028
:1000600055010800000000000000000055010800D4
:100070005501080000000000000000000000000022
:100080000000000055010800550108005501080056
:100090000000000055010800550108005501080046
:1000A0005501080000000000550108005501080036
:1000B00055010800550108005501080055010800C8
:1000C00055010800000000000000000000000000D2
:1000D00055010800550108005501080055010800A8
:1000E0005501080055010800550108005501080098
:1000F0005501080010B5054C237833B9044B13B1F2
:100100000448AFF300800123237010BD30040020A9
:10011000000000001004080008B5064B1BB106489B
:100120000649AFF300800648036813B1054B03B1DD
:10013000984708BD000000001004080034040020A7
:10014000100408000000000008B5014B9847FEE7C6
:10015000F9010800FEE700BF10B51A4B1A4A9A428F
:1001600003D01A4B174A9A4204D3194B194A9A42A0
:100170000FD31AE0184B194CE41A24F0030404348A
:100180000023104810495A581A500433A342FAD198
:10019000EBE7134B1349C91A21F003011A1D11444F
:1001A000002243F8042F8B42FBD10F4B23F0604316
:1001B00023F07F030D4A93600D4B98470D4B9847F2
:1001C000FEE700BF000000201004080030040020FB
:1001D0004C040020300400200400002033040020E0
:1001E0002C040020470400200000080000ED00E07F
:1001F0009D020800490108004FF48063204A136003
:1002000002F5007213601F4B1B6A13F0807F07D149
:100210001D4A1C4B1A621A46936E13F0010FFBD055
:100220001A4A184B1A621A46936E13F4803FFBD099
:10023000144B1A6B22F0030242F001021A631A46B1
:10024000936E13F0080FFBD0114A0E4B9A621A46B8
:10025000936E13F0020FFBD011220A4B1A631A4659
:10026000936E13F0080FFBD01222064B1A631A4646
:10027000936E13F0080FFBD0064A074B1A607047C5
:10028000000A0E4000060E40090837000908370131
:10029000013F0D2000BD01050000002070B50F4E8C
:1002A0000F4D761BB61007D0043D0024013455F8DD
:1002B000043F9847A642F9D10A4E0B4D00F096F83C
:1002C000761BB61008D0043D0024013455F8043FD5
:1002D0009847A642F9D170BD70BD00BFF803080071
:1002E000F803080000040800F8030800024B13B1EB
:1002F000024800F005B87047000000000D03080038
:10030000014600200246034600F018B838B5094DF2
:10031000094C641BA41018BF05EB840505D0013CF3
:1003200055F8043D9847002CF9D1BDE8384000F05D
:1003300067B800BF0C04080010040800F0B5274C93
:1003400085B026680746D6F84841002C40D065683D
:100350001F2D1EDD224818B94FF0FF3005B0F0BD4B
:100360004FF4C870039102920193AFF30080039998
:100370000446029A019B0028EED0D6F8485100208E
:10038000256060600546C6F84841C4F88801C4F895
:100390008C013FB96B1C00200235636044F82510C6
:1003A00005B0F0BD0126AE4004EB8500C0F8882002
:1003B000D4F88821022F42EA0602C4F88821C0F846
:1003C0000831E7D1D4F88C311E43C4F88C61E1E7E1
:1003D00006F5A674C6F84841B9E700BFE80308006F
:1003E000000000004300000008000020F8B500BF36
:1003F000F8BC08BC9E467047ED02080019010800D1
:10040000F8B500BFF8BC08BC9E467047F500080070
:1004100000093D000000000000000000F402002080
:100420005C030020C4030020000000000000000066
:1004300000000000000000000000000000000000BC
:10044000000000000000000000000000E4030800BD
:10045000000000000000000000000000000000009C
:10046000000000000000000000000000000000008C
:10047000000000000000000000000000000000007C
:10048000000000000000000000000000000000006C
:10049000000000000000000000000000000000005C
:1004A000000000000000000000000000000000004C
:1004B000000000000000000000000000000000003C
:1004C00001000000000000000E33CDAB34126DE6D9
:1004D000ECDE05000B000000000000000000000042
:1004E000000000000000000000000000000000000C
:1004F00000000000000000000000000000000000FC
:1005000000000000000000000000000000000000EB
:1005100000000000000000000000000000000000DB
:040000038000000079
:00000001FF
