S00E0000626C696E6B332E73726563D3
S214080000B82407209502080091020800910208000B
S2140800109102080091020800910208000000000002
S2140800200000000000000000000000009102080028
S21408003091020800000000009102080091020800E2
S2140800409102080091020800910208009102080037
S2140800509102080091020800910208009102080027
S214080060910208000000000000000000D10108000E
S214080070E501080000000000000000000000000085
S2140800800000000091020800910208009102080092
S2140800900000000091020800910208009102080082
S2140800A09102080000000000910208009102080072
S2140800B091020800910208009102080091020800C7
S2140800C09102080000000000000000000000000088
S2140800D091020800910208009102080091020800A7
S2140800E09102080091020800910208009102080097
S2140800F09102080010B5054C237833B9044B13B1A8
S2140801000448AFF300800123237010BD280407209D
S21408011000000000C804080008B5064B1BB10648D6
S2140801200649AFF300800648036813B1054B03B1D0
S214080130984708BD00000000C80408002C040720E3
S214080140C80408000000000010B44164019C0CB10B
S214080150416600E001660BB1016500E041650AB141
S214080160016300E04163016101605DF8044B70477C
S214080170C06C7047806C70472DE9F04104460E4607
S214080180104B9847054620460F4B9847054017D012
S2140801900E4F07F10C046C3754F80C3CB3420AD1E6
S2140801A054F8081C294206D023683046984754F865
S2140801B0083C25EA0305BC4202D01034002DEBD1DA
S2140801C0BDE8F081710108007501080044040720A5
S2140801D008B502480B21024B984708BD000E0E4092
S2140801E07901080008B502480C21024B984708BD5B
S2140801F000100E40790108002C2820D81F280DD89A
S214080200124B9A69012383401A40934219D001235E
S21408021003FA00F00D4B1861002070470B4BD3F81B
S21408022008212038012383401A4093420BD001232B
S21408023003FA00F0054BC3F80001002070470120C0
S2140802407047002070470020704700BF00060E4029
S21408025070B582B00B200B4CA0470C20A0470A4D67
S2140802600126009628464FF4F86100221346074CEC
S214080270A047009628460F2100221346A04702B042
S21408028070BD00BFF901080000100E4049010800C3
S214080290FEE700BF10B51E4B1E4A9A4203D01E4BFF
S2140802A01B4A9A4204D31D4B1D4A9A420FD31AE0A2
S2140802B01C4B1D4CE41A24F0030404340023144891
S2140802C014495A581A500433A342FAD1EBE7174B8D
S2140802D01749C91A21F003011A1D1144002243F8D0
S2140802E0042F8B42FBD1134A22F0604323F07F038E
S2140802F011498B6002F16042B2F5801F03D28A680A
S21408030042F000528A600D4B98470D4B9847FEE71F
S21408031000000720C804080028040720B4040720A3
S21408032028040720040007202B040720240407209D
S214080330AF0407200000080000ED00E055030800A1
S2140803404503080008B5024B9847002008BD00BFC3
S2140803505102080070B50F4E0F4D761BB61007D029
S214080360043D0024013455F8043F9847A642F9D1C5
S2140803700A4E0B4D00F096F8761BB61008D0043DD2
S2140803800024013455F8043F9847A642F9D170BDB9
S21408039070BD00BFB0040800B0040800B804080028
S2140803A0B0040800024B13B1024800F005B87047C5
S2140803B000000000C5030800014600200246034668
S2140803C000F018B838B5094D094C641BA41018BFBE
S2140803D005EB840505D0013C55F8043D9847002CEC
S2140803E0F9D1BDE8384000F067B800BFC40408007B
S2140803F0C8040800F0B5274C85B026680746D6F826
S2140804004841002C40D065681F2D1EDD224818B9CB
S2140804104FF0FF3005B0F0BD4FF4C870039102925C
S2140804200193AFF3008003990446029A019B0028C3
S214080430EED0D6F848510020256060600546C6F81C
S2140804404841C4F88801C4F88C013FB96B1C0020E9
S2140804500235636044F8251005B0F0BD0126AE40AD
S21408046004EB8500C0F88820D4F88821022F42EAD9
S2140804700602C4F88821C0F80831E7D1D4F88C31D0
S2140804801E43C4F88C61E1E706F5A674C6F8484131
S214080490B9E700BFA0040800000000004300000001
S2140804A000000720F8B500BFF8BC08BC9E46704799
S2140804B0A503080019010800F8B500BFF8BC08BC79
S20C0804C09E467047F50008008F
S2140804C800000000EC02072054030720BC0307209E
S2140804D80000000000000000000000000000000007
S2140804E800000000000000000000000000000000F7
S2140804F8000000009C04080000000000000000003F
S21408050800000000000000000000000000000000D6
S21408051800000000000000000000000000000000C6
S21408052800000000000000000000000000000000B6
S21408053800000000000000000000000000000000A6
S2140805480000000000000000000000000000000096
S2140805580000000000000000000000000000000086
S2140805680000000000000000010000000000000075
S2140805780E33CDAB34126DE6ECDE05000B0000003A
S2140805880000000000000000000000000000000056
S2140805980000000000000000000000000000000046
S2140805A80000000000000000000000000000000036
S2140805B80000000000000000000000000000000026
S8040802955C
