S0160000415453414D335838435F544553542E73726563F3
S214080000B82C072009280800052808000528080035
S2140800100528080005280800052808000000000034
S214080020000000000000000000000000052808008E
S2140800300528080000000000052808000528080014
S21408004005280800052808000528080005280800CF
S21408005005280800052808000528080005280800BF
S214080060052808000000000000000000310F080006
S214080070450F080000000000000000000000000017
S21408008000000000052808000528080005280800C4
S21408009000000000052808000528080005280800B4
S2140800A005280800000000000528080005280800A4
S2140800B0052808000528080005280800052808005F
S2140800C005280800000000000000000000000000EE
S2140800D0052808000528080005280800052808003F
S2140800E0B91A080005280800052808000528080089
S2140800F00528080010B5054C237833B9044B13B10E
S2140801000448AFF300800123237010BD1C0A0720A3
S214080110000000008C340800084B10B51BB10848D6
S2140801200849AFF300800848036803B910BD074BB9
S214080130002BFBD0BDE81040184700BF00000000A9
S2140801408C340800200A07208C34080000000000C1
S214080150024A1378013BDBB213707047D00A0720B7
S21408016000207047002070471D4B1B7813F0800F47
S21408017012D003F06003202B28D1194B5B78212B73
S21408018026D1174BDB88072B24D1154B154A9A60C6
S21408019007229A810120704703F06003202B1BD1A9
S2140801A00F4B5878202804D0222814BF002001209E
S2140801B070470B4BDB88072B10D1094B0A4A1A618C
S2140801C0084A9A6007229A810120704700207047E3
S2140801D000207047002070470020704700207047B6
S2140801E09C0C07203C0A0720ED010800704700BF5A
S2140801F008B50023104A1370104A1380104AA1212C
S214080200117020215170538093800221D180138170
S2140802100C4A4FF4E131116013715371082393713E
S214080220094B9847024620B103490B780133DBB2E5
S2140802300B70104608BD00BFD00A0720740B0720B5
S214080240E00A07203C0A0720DD2A0800424B1B78F4
S21408025013F0FF0F7FD130B583B0404B984730B1CD
S2140802603F4B1C883F4B9847844206D171E03C4B75
S2140802701C883D4B984784426BD0EFF31085B5FA3F
S21408028085F56D0972B6BFF35F8F0022374B1A707B
S214080290374B1C78E4B2374B33F81430DBB9364AA0
S2140802A01388013313802D4B984718B9324B1B8897
S2140802B0632B07D9294B984768B12F4B1B88B3F592
S2140802C0487F08D2002D44D00122284B1A70BFF36D
S2140802D05F8F62B63DE00022274B1A80274B1B78BB
S2140802E013F0FF0F05D1B4FA84F35B09204A1370A4
S2140802F002E0B4FA84F464090122174B1A7025B197
S2140803001A4B1A70BFF35F8F62B62546194B33F83F
S2140803101440403C18BF012464B1104B984720B1E4
S214080320104B98470E4B188007E00F4B98470C4B1E
S214080330188002E000220A4B1A800E4B33F815305C
S2140803400F4A0092812021460E4A02EB85120E4C77
S214080350A04703B030BD7047DC0A0720E520080038
S214080360D40A07203121080021210800D8010720D7
S214080370440A0720480A0720D20A0720700B0720DD
S2140803808D0308004C0A07208D23080088B908B595
S214080390084B1B7813F0FF0F0CBF01220022064BF8
S2140803A023F81200054B1870054B1870054B984734
S2140803B008BD7047440A0720480A0720700B072024
S2140803C0DC0A07204D02080008B50020014B9847B4
S2140803D008BD00BF4D02080008B5064A1378013B61
S2140803E0DBB213701378044B98470022034B1A703D
S2140803F008BD00BF430A0720E92A0800D60A0720D6
S214080400EFF3108272B6BFF35F8F00210A4B1970A4
S2140804100A4B188880B20A4B1B78DBB2094931F8B8
S21408042013309BB2181A2AB90122034B1A70BFF36D
S2140804305F8F62B6704700BFD8010720380A0720CA
S214080440D80A0720CC0A072008B5034B984700307F
S21408045018BF012008BD00BF0104080010B582B00F
S214080460EFF31083B3FA83F35B0972B6BFF35F8FBB
S21408047000211F4A11701F4A1278D4B21E4A1278F9
S21408048012F0FF0F08D11D4A118889B21C4A32F8AB
S214080490142092B2914208D233B30122144B1A7038
S2140804A0BFF35F8F62B600201FE00021134A118059
S2140804B0B4FA84F252090F490A7001210E4A1170E3
S2140804C023B10B4B1970BFF35F8F62B600200D4B3C
S2140804D098470D4B0093022001210C4A02EB841228
S2140804E040230B4CA04700E0002002B010BD00BF20
S2140804F0D8010720D80A07206C0B0720380A0720DF
S214080500CC0A072049040800A5050800EC0A0720BD
S2140805108D23080010B50024154B1C70154B1C7055
S214080520154B1C70154B1C70154B1C805C80154BAE
S2140805301C802046144B9847144B1C70144B1C7098
S214080540144B1C805C80144B1C802046134B984729
S214080550014658B1064A13780133DBB21370137894
S214080560DBB2012B02D101220D4B1A70084610BDD2
S214080570430A0720DC0A0720700B0720440A0720D6
S214080580480A0720D40A07204D0208006C0B0720EB
S214080590D80A0720CC0A0720380A07205D04080076
S2140805A0D60A0720F8B910B582B00F4B1B7813F09F
S2140805B0FF0F0CBF0123002351B90C4900911046C8
S2140805C001210B4A02EB831240230A4CA04708E09D
S2140805D089B2094A22F813100020084B1870084BF5
S2140805E0984702B010BD7047D80A0720A50508002E
S2140805F0EC0A07208D230800CC0A07206C0B07207E
S2140806005D040800EFF3108272B6BFF35F8F002117
S214080610134B1970134B1B78DBB2134931F81300D0
S214080620402812D11149097811F0FF0F0DD1104951
S214080630097811F0FF0F08D101200D490870B3FAA8
S21408064083F35B0907490B700020C0F140002AB904
S2140806500122034B1A70BFF35F8F62B6704700BF64
S214080660D8010720440A0720480A0720DC0A072082
S214080670700B072008B5034B9847003018BF0120B9
S21408068008BD00BF050608002DE9F0410C461B4BC7
S2140806909D79092D14BF00250125194E194FDFF83D
S2140806A074800020B04730B9174B1B7813F0FF0F43
S2140806B0F7D1BDE8F081EFF3108172B6BFF35F8F14
S2140806C000233B7098F80030DBB2104830F813204F
S2140806D002F1010E20F813E002EB83130C4AD454FF
S2140806E021B901233B70BFF35F8F62B615B12412A0
S2140806F00025D6E70120BDE8F08100BF3C0A0720A8
S21408070075060800D8010720D60A0720480A0720D9
S2140807104C0A0720440A072008B501460020014B6A
S214080720984708BD890608000F4B1B681A68538847
S2140807301A4403781844904210D24378042B0FD0FA
S2140807408B4205D170474378042B0BD08B420AD0D6
S214080750037818449042F6D300207047002070476C
S2140807600020704700207047780B072008B5034B19
S214080770987800F07F00024B984708BD9C0C07202D
S214080780E9200800164B1B780BB3164B1B681B6832
S2140807901A7982421DD910B4134A13605C881C4427
S2140807A0A34218D25A78042A09D19A78824206D1E6
S2140807B0DA788A4203D10C4A136001200CE01A78D2
S2140807C01344A342EED3084A1360002004E0002036
S2140807D070470020704700205DF8044B704700BF44
S2140807E0840B0720780B0720880B07202DE9F84391
S2140807F004460021124B98478046E8B1114B1B6807
S2140808005B6853F82490D9F80C3098470146204680
S2140808100B4B9847804678B10B4B1C6805260B4D4A
S2140808200B4F20463146A847044610B18078B84793
S214080830F7E7D9F8043098474046BDE8F88300BF84
S21408084085070800780B0720880B0720290708006B
S2140808504D2108002DE9F0418046104B9847034685
S214080860C8B10F4B1C6805260E4D0F4F2046314663
S214080870A847044638B18078E178A288B847034686
S2140808800028F3D107E0094B1B685B6853F828304B
S2140808901B68984703461846BDE8F0818507080098
S2140808A0880B07202907080085240800780B0720EE
S2140808B008B5014B984708BD8918080070B50D4B58
S2140808C01B7883B10C4B1B681B681B795BB1002433
S2140808D00A4E094D2046B0470134E4B22B681B681F
S2140808E01B79A342F6D80022024B1A700122044B49
S2140808F01A8070BD840B0720780B0720ED070800C8
S214080900820B072038B50C4B1B789BB10B4B1B682A
S2140809101A68127972B10024084D5B6853F82430BF
S2140809201B6903B198470134E4B22B681A68127938
S214080930A242F2D838BD00BF840B0720780B0720E8
S214080940F8B5904B00229A811A615A611B7813F009
S214080950800F00F0D2818B4AD288002A40F0D181DD
S214080960C7E113F01F0365D18649497806290BD0DD
S214080970082957D000295DD1022A40F06A818248AA
S2140809800221824B9847C0E17E4B5A88130A013BE6
S2140809900E2B00F25581DFE813F00F001600340026
S2140809A0530153015301530153015301530153019A
S2140809B05301530153012A00754B1B6818461978D2
S2140809C0724B984725E0D2B2714B1B685B7C93420A
S2140809D040F23F816E4B5B6853F8323018465988B0
S2140809E06A4B9847674B9B6802225A7011E0684B1F
S2140809F09B68002B00F02D8118465988634B984752
S214080A0007E012F0FF0F40F02481624804215F4B94
S214080A1098475C4BDA889B89934240F27681594B1B
S214080A209A8172E1012A40F014815B480121574BF4
S214080A3098476AE1012B27D1524949780A2923D1D8
S214080A40012A40F00681544B1B78002B00F00181E8
S214080A504C4B1C79514B1D682B681B79A34240F2FE
S214080A60F880204600214E4B9847002800F0F18079
S214080A706B6853F82430DB6898474A4B187018465A
S214080A800121424B984740E1022B40F0E2803D4B63
S214080A905B78002B40F0D680022A40F0DA80394B8B
S214080AA01879414B9847414B188018460221374B16
S214080AB098472AE113F01F0340F08280314A5278A3
S214080AC0013A082A7CD8DFE812F012007B00BF0043
S214080AD07B0009007B007B007B002200294BDB881B
S214080AE0002B40F0B680324A264B1A610DE1254BA2
S214080AF0DB88002B40F0AD80224B5B88012B40F052
S214080B00A880214A138823F002031380FDE01D4BBA
S214080B10DB88002B40F09D80264B9847002800F085
S214080B209880184B9A781A4B1B685B7C9A4200F39D
S214080B309080214B9847134B9B78174A1370002BCD
S214080B4000F0E38003F10053013B114A526802EBC0
S214080B50C3001249086052F833301B79002B00F0A6
S214080B60D48000242646154D0F4620463146A84711
S214080B7000286ED00134E4B23B681B681B79A34298
S214080B80F3D8C2E09C0C0720820B072041210800FE
S214080B9060010720D4010720840B0720780B072064
S214080BA085070800800B0720A92108007C0B072072
S214080BB06D07080011210800BD0808005508080040
S214080BC0012B19D1524A52780B2A15D1504BDB8883
S214080BD0002B3ED14F4B1B78002B3AD04C4B1C7940
S214080BE05D8820464C4B9847002832D02046E9B20C
S214080BF04A4B984703462AE0022B2AD1444B5B7897
S214080C00012B02D0032B0CD020E0414BDB8803BB22
S214080C103F4B5B88EBB93E4B1879414B98470346E8
S214080C2015E03B4BDB88A3B9394B5B888BB9384C4E
S214080C3020793C4B984720793B4B9847034606E07B
S214080C40002304E0002302E0002300E00023002B3A
S214080C505CD12F4B1B7803F01F03012B1ED12D4BA5
S214080C601B78DBB12A4B1C79304B1D682B681B7927
S214080C70A34213D9204600212D4B984770B16B68C4
S214080C8053F82450EB68984701462046284B984767
S214080C9020B1AB6898470346002837D11C4B1B7811
S214080CA003F01F03022B26D11A4B1B78EBB11F4B00
S214080CB01A6813681B79D3B100241D4E1B4F53685E
S214080CC053F82450EB68984701462046B047034639
S214080CD0E0B1AB6898470346C0B90134E4B23A6855
S214080CE011680979A142EAD810E000230EE0002333
S214080CF00CE000230AE0002308E013F0600FA8D1F8
S214080D00D8E613F0600FA4D12BE601231846F8BDE9
S214080D109C0C0720840B0720ED07080055080800E0
S214080D20B122080099260800BD210800780B072084
S214080D3085070800036843F080030360704700BF18
S214080D400B680A7982B9DBB200EB43100023C0F8BF
S214080D500032C0F80432C0F80832C0F81432C0F8BE
S214080D601832C0F81C32704730B4DBB200EB4312BE
S214080D70D2F80042CD7924F4702444EA0544C2F837
S214080D8000424C7954B1CC6844F00054C2F804428E
S214080D900C6944F00054C2F8084207E0CC68C2F870
S214080DA004420C6900EB4313C3F80842D2F8003239
S214080DB0097923F0E06343EA0163C2F8003230BCE5
S214080DC0704700BF70B588B0064600248DF804400A
S214080DD0044D009430466946A8470134082CF8D1DB
S214080DE008B070BD410D0800F8B546F2A81303FB1D
S214080DF002F40B19013BB3FBF4F3802B64D84FF4D1
S214080E00FA5404FB02F4B4EB510F5FD84FF47A732C
S214080E1003FB02F208274FF0FF363B46B1FBF4F51A
S214080E20802D06D804FB1515B54202D23DB12E46D4
S214080E301F460133DBB214441A2BEFD100E01F46DD
S214080E4002FB07F2B1FBF2F1CBB2012B40D9044604
S214080E50083F036823F0010303601E487D00EE196F
S214080E6000EB4606B378013B1B0103F0700273786B
S214080E70013B1B0203F4E0631343F278013A02F0E5
S214080E8007021A433379013B1B0303F440531A4302
S214080E90C9B24B1E1B0403F4FE03134363612046CA
S214080EA00D4B9847236843F00103236000230B4942
S214080EB02269013312F4001F01D18B42F8D107488A
S214080EC0181A18BF0120F8BD0020F8BD0020F8BD8C
S214080ED00020F8BDF4330800C50D0800A086010000
S214080EE02DE9F041044688460E4B984705462046AD
S214080EF00D4B9847054013D00C4C04F16006236848
S214080F00434508D16168294205D0E36840469847BA
S214080F10636825EA0305B44202D01034002DEED1EA
S214080F20BDE8F08101110800051108008C0B0720A8
S214080F3008B502480B21024B984708BD000E0E4024
S214080F40E10E080008B502480C21024B984708BD78
S214080F5000100E40E10E080008B5044B9847002024
S214080F60034B9847034B984708BD00BF2512080057
S214080F7091120800A512080010B50E480E4B9847A7
S214080F8000203E210D4B98470D4CA0470028FCD06A
S214080F900C4B98470C4A0D4B9A620D4CA0470028FC
S214080FA0FCD010200B4B98470B4B98470148024B38
S214080FB0984710BD00BD0105B1000720A111080023
S214080FC0F511080005120800013F0D2000060E4026
S214080FD01512080039110800B92808004264B1F152
S214080FE0805F16D004D8C1B1B1F1006F0AD013E003
S214080FF0B1F1405F11D0B1F1605F0ED0B1F1205F62
S2140810000AD17047036F016F0B4023EA0203036798
S21408101002E0036F1343036742607047416412F0AF
S214081020010F14BF4166016612F00A0F14BF016271
S214081030416212F0020F02D0C0F8801004E012F0ED
S214081040080F18BFC0F8841041610160704700BFE0
S21408105010B44164019C0CB1416600E001660BB116
S214081060016500E041650AB1016300E04163016182
S21408107001605DF8044B7047F0B583B007460C4630
S21408108016461D46B1F1205F1AD006D8B1F1006F9A
S2140810900AD0B1F1805F07D028E0B1F1405F15D0E3
S2140810A0B1F1605F12D021E0384621463246114B36
S2140810B0984715F0010F14BF7E663E66012016E0BD
S2140810C011461A460C4B9847012010E005F001031C
S2140810D0009338463146B4F1605F14BF00220122FF
S2140810E0C5F38003054CA047012000E0002003B0AC
S2140810F0F0BD00BFDD0F08001D10080051100800E5
S214081100C06C7047806C7047430903F5001303F200
S21408111007735B0200F01F00012282401A637047C3
S214081120430903F5001303F207735B0200F01F0080
S214081130012282405A637047184A136B23F07003E3
S21408114018431063936E13F0080F03D009E0013BB1
S21408115003D11EE04FF4006310498A6E12F0080FA0
S214081160F5D00E4A136B23F0030343F00203136310
S214081170906E10F0080004D000207047013B03D1A1
S21408118009E04FF4006305498A6E12F0080FF5D09F
S2140811907047012070470120704700BF00060E40C8
S2140811A038B111490B6A114A1A40114B13430B62A6
S2140811B070470D4A136A23F45C1323F0030343F4C1
S2140811C05C1343F00103090289B20B431362936E62
S2140811D013F0010FFBD0044A136A43F09B7343F4E1
S2140811E080331362704700BF00060E40FCFFC8FE3F
S2140811F002003701024B986E00F48030704700BF3B
S21408120000060E404FF00052014B9A62704700BF2E
S21408121000060E40024B986E00F00200704700BFB2
S21408122000060E404FF44412034BDA611A46936EDA
S21408123013F0400FFBD0704700060E402C281ED82F
S2140812401F280CD8114B9A69012383401A409342F1
S21408125017D0012383400D4A1361002070470B4BBB
S214081260D3F808212038012383401A4093420AD035
S21408127001238340054AC2F8003100207047012048
S2140812807047002070470020704700BF00060E40D9
S214081290000200F4706040F00100014B986370474C
S2140812A000060E402022014B1A60704700060E40CA
S2140812B0034A136FC0F3120003431367704700BF57
S2140812C000060E40024B187880F00100704700BFF9
S2140812D0FC0B07202DE9F04F89B03A483A4B98475F
S2140812E001243A4B1C70BFF35F8F62B60B20384D53
S2140812F0A8470C20A847DFF80891009448464FF402
S214081300F86100221346334EB047009448460F2132
S21408131000221346B047DFF8ECA0009450464FF47E
S214081320406122460023B04750464FF000614FF414
S21408133040620023DFF8D080C04700260596069650
S21408134007964FF4E1330293C02303934FF40063E8
S21408135004931120A847DFF8B4B01F4F584602A9D7
S2140813603A461E4B984758461D4B98471D4B1C60DF
S21408137050464FF0006103223346C04748464FF0B8
S21408138000614FF440423346C0472B20A8472C2024
S214081390A847154D28463946FA22144EB047144C2D
S2140813A020463946FA22B0472846124DA847204616
S2140813B0A8472046104B9847104B984709B0BDE8F9
S2140813C0F08F00BF501A0E40FD270800D8010720EE
S2140813D03D12080051100800007A030AA1270800E9
S2140813E0F52708000080004000400B40E90D080083
S2140813F000800B40C50D0800350D0800B108080030
S21408140000100E40000E0E407910080000800940BB
S214081410EFF3108372B6BFF35F8F00210A4A11708C
S21408142001210A4A116023B9074B1970BFF35F8F71
S21408143062B60222064B1A60064A002313615361FD
S2140814409381054A13707047D801072020C20A40C6
S21408145060C10A409C0C07204D0C07200522034B50
S2140814601A704FF40022024B1A6070474D0C072082
S214081470F0C10A4003220D4B1A70EFF3108372B6C0
S214081480BFF35F8F00210A4A11700A4801210160E4
S214081490094A11600821016011602BB90122044B2A
S2140814A01A70BFF35F8F62B6704700BF4D0C0720F7
S2140814B0D801072060C10A40F0C10A4008B5024BAF
S2140814C01B6903B1984708BD9C0C072038B5EFF395
S2140814D0108372B6BFF35F8F0021484A117001214E
S2140814E0474A116023B9454B1970BFF35F8F62B640
S2140814F0444B1B78032B04D1434B9847434B9847E0
S21408150038BD434B1A88434B9C89A41AA4B2002CB6
S2140815102ED141490B8813449BB20B803D4AD28892
S2140815209A4202D03D4B1B78C3B10422354B1A7041
S214081530EFF3108372B6BFF35F8F00212F4A117046
S214081540102237490A6090310A60002B54D10122D4
S2140815502A4B1A70BFF35F8F62B638BD2D4B5B6996
S2140815606BB1984758B10022294B1A80294B9C89A1
S2140815703F2C04D90022294B1A70402402E001228D
S214081580264B1A70234B9A68214B1B88EFF3108062
S214081590B0FA80F0400972B6BFF35F8F002517498E
S2140815A00D702049096811F0020F01D15CB913E0EB
S2140815B028B10122114B1A70BFF35F8F62B604225E
S2140815C0104B1A7038BD1A44174B12F8011B03F853
S2140815D0011BD9B2A142F8D30D4A13881C441480C3
S2140815E001230F4A13609032136028B11A46034B42
S2140815F01A70BFF35F8F62B638BD00BFD8010720E8
S21408160020C20A404D0C0720BD140800111408001B
S2140816104E0C07209C0C07204A0C0720500C07206D
S21408162060C10A4030C10A400000182010B50346C1
S214081630047D14F0010F10D0047D6FF300040475C8
S214081640046854B1054850F8220010F4807F18BF8B
S21408165042F0800208469968A04710BD00C10A40BB
S214081660F8B5431E03EB43015A4A02EBC102127D4A
S21408167012F0010F00F0AD800A46564901EBC2028F
S214081680D1689268914275D0521AB2F5803F92BFDF
S21408169017044FF4803200274F4C54F8205015F4A6
S2140816A0807F14D054F82050C5F302150824AC40A7
S2140816B0013C22421BD047F0080703EB4304454D84
S2140816C005EBC404257D6FF3410525750FE054F836
S2140816D02050C5F3C125012D07D154F82050C5F375
S2140816E002150824AC40A24201D847F014073B4C28
S2140816F004EB001403EB4305364E06EBC5056D6890
S21408170029446160EFF31081B1FA81F1490972B694
S214081710BFF35F8F0026324D2E70E56815F0100F68
S2140817201AD147F02107A76003EB4304294800EBCA
S214081730C400C4681444C46002614FF0007202FA20
S21408174003F3284A9361002943D00122244B1A70D8
S214081750BFF35F8F62B6F8BD29B10121204A117028
S214081760BFF35F8F62B603EB43021A4901EBC2026E
S214081770D1689160184A52F8202012F4807F1FD052
S21408178003EB4302134901EBC202127D12F0020F6B
S21408179016D00122144B43F82020303B53F8203053
S2140817A013F4803F1CBF114B43F820200122104B36
S2140817B043F820204FF4805383400A4A9361F8BDCB
S2140817C0024603EB4303034800EBC3000021094B22
S2140817D09847F8BD000C072000C10A4000C30A401D
S2140817E0D801072000C00A4060C10A4090C10A40DC
S2140817F0F0C10A402D16080010B40446002835D15A
S2140818001E4B1B787BB31E4B9B7803B9FEE7EFF3A2
S214081810108372B6BFF35F8F00211A4A11701849F9
S2140818208A78013A8A70F3B90122164B1A70BFF308
S2140818305F8F62B617E0124B9B78FF2B00D1FEE74E
S214081840EFF3108372B6BFF35F8F00210D4A117055
S2140818500B498A7801328A702BB90122094B1A7013
S214081860BFF35F8F62B6054B1C7004E0034B1B7812
S214081870002BF8D1DFE75DF8044B70474C0C0720C7
S214081880940C0720D801072010B5EFF3108472B621
S214081890BFF35F8F0022514B1A702820504B984791
S2140818A0504B9847504B502283F828234FF48072A9
S2140818B05A604FF480204D4B98474D4BD3F800287C
S2140818C022F08072C3F80028D3F8002842F000728D
S2140818D0C3F80028D3F8002822F08072C3F800283E
S2140818E0D3F8002842F48052C3F80028D3F800281A
S2140818F042F40042C3F800281A6822F480521A609C
S2140819001A6842F440621A60D3F8002822F480422B
S214081910C3F800281A46D2F8043813F4804FFAD0D1
S214081920344B1A7D02F0FE026FF382021A7593F8A2
S2140819302C2002F0FE026FF3820283F82C2093F824
S214081940442002F0FE026FF3820283F84420284BFC
S2140819500222C3F80828D3F8043813F4006F1CBF13
S214081960234BC3F80C28224BD3F8002842F0020277
S214081970C3F80028D3F8002842F48042C3F80028A9
S2140819801D4B1B78F3B901221B4B1A7000221B4B08
S2140819901A701B4BDB78FF2B00D1FEE7EFF31083A2
S2140819A072B6BFF35F8F00210C4A11701449CA78CB
S2140819B00132CA704BB90122084B1A70BFF35F8F09
S2140819C062B602E000200F4B98472CB90122034B61
S2140819D01A70BFF35F8F62B610BD00BFD80107202C
S2140819E03D120800590F080000E100E0B112080097
S2140819F000C00A40000C0720480C07204C0C0720A3
S214081A00940C0720F917080038B5EFF3108472B65F
S214081A10BFF35F8F0022184B1A700120174B9847A8
S214081A20174AD2F8003823F48043C2F80038D2F8B0
S214081A30043813F4804FFAD0114B1A6822F48072D7
S214081A401A6008259D610121996110229A61042077
S214081A5098619D60986002209860D9609A60D3F873
S214081A60002842F48042C3F8002824B9024B1970B3
S214081A70BFF35F8F62B638BDD8010720F917080094
S214081A8000C00A4008B50A4BD3F8002822F4804262
S214081A90C3F800281A6842F480721A60D3F800283F
S214081AA042F48042C3F800280020024B984708BD3D
S214081AB000C00A40F91708002DE9F041984B9847EE
S214081AC060B9984B5B6813F0010F07D172B6BFF385
S214081AD05F8F0022944B1A70BDE8F081914B5B68CB
S214081AE013F0040F0CD08F4B04229A60D3F80438F6
S214081AF013F4405F40F0E8828C4B9847BDE8F081CD
S214081B00884B5B6813F0020F06D00222854B9A605A
S214081B10864B9847BDE8F081824B5B6813F4805F7C
S214081B2000F0C382824B10221A6008221A60F03B2B
S214081B301B6813F0040F59D07E4B1B78002B00F05F
S214081B40A9827D4B98477D4B9847A3E27C4B9847E4
S214081B5004227C4B1A60BDE8F08113F8011B02F8DA
S214081B60011F8342F9D1784B984730B9744B984790
S214081B700422744B1A60BDE8F0810422714B1A6087
S214081B80724B93F90030002B0BDA0023704A13804F
S214081B90704A13800222674B1A706F4B9847BDE84D
S214081BA0F0816A4BDB881BB96C4B9847BDE8F0811F
S214081BB00022674B1A80674B1A8001215D4B19700B
S214081BC01021604B1960EFF3108372B6BFF35F8F76
S214081BD055480270624A1160002B40F07582012257
S214081BE00270BFF35F8F62B6BDE8F0815D4B1B687D
S214081BF013F0010F08D05C4B1B6813F0010F03D0DD
S214081C00554B9847BDE8F081564B1B6813F0020FFA
S214081C1000F0AE80474B1B78012B0CD0022B01D06E
S214081C20042B02D1444B984701E0454B9847434B59
S214081C309847BDE8F0814B4B1868C0F30A50434BF1
S214081C409B89444A148822189342AEBF80B21B1B55
S214081C5098B23E4B9A68B0B1631E1A44434B13F8C9
S214081C60011B02F8011FD9B28142F8D30444A4B27A
S214081C70384B1C80402806D1344BDA88344B1B88F6
S214081C8023449A4213DC314B9C815B6943B19847E5
S214081C9030B92B4B984702222A4B1A60BDE8F081D0
S214081CA00222284B1A602D4B9847BDE8F081274B37
S214081CB09B89A3421AD1254B5B6933B9204B9847B9
S214081CC00222204B1A60BDE8F081984730B91C4BB9
S214081CD0984702221B4B1A60BDE8F0811C491D4A32
S214081CE010880B8803440B8000231380154B0222B0
S214081CF01A6010221A60EFF3108372B6BFF35F8F74
S214081D0000200949087016490A60002B40F0DC815B
S214081D100122054B1A70BFF35F8F62B6BDE8F081EB
S214081D20C512080000C00A40D801072005090800A7
S214081D3020C20A404D0C0720BD14080011140800E4
S214081D405D14080060C10A40410908009C0C072081
S214081D504A0C07204E0C0720CD14080075140800FE
S214081D60F0C10A4030C10A40C0C10A40000018202D
S214081D70B54B1B6813F0080F13D00822B34B1A6034
S214081D80303B1B6813F0010F40F09E81B04B1B7868
S214081D90032B40F099814FF40022AE4B1A60BDE841
S214081DA0F081A94B1B6813F0100F00F07E811022FB
S214081DB0A64B1A60303B1B6813F0020F40F0848174
S214081DC0A34B1B78012B03D1A34B9847BDE8F081A2
S214081DD0042B40F079814FF400229E4B1A60BDE830
S214081DE0F081DAB21F46581E26690EFA00F535420B
S214081DF020D0666835421DD0984B03EB0213D9688D
S214081E0011F0010F40F0608195494D61DB681E0CAA
S214081E100BD0944945002B1801EBC303DC68A41BC0
S214081E20DC60284401EBC0018C6010468E4B984756
S214081E30BDE8F08126690CFA07F535424CD04FEA22
S214081E40830801F19007D1F8906016F0010F18D0BA
S214081E500E6816F0010F14D0844B012148F80310C1
S214081E607A4C48F804104FF4804148F8031000EB09
S214081E7040007C4B03EBC00000217D4B9847BDE833
S214081E80F0813A6812F4805F26D00A6812F4405F40
S214081E9022D14FF48052754B48F80320A3F50873F7
S214081EA05D6100EB40006F4B03EBC000027D6FF3F3
S214081EB0820202756F4A58F8023023F4007348F815
S214081EC00230644B4FF4002248F803204FF4802277
S214081ED048F80320BDE8F08101330431042B80D193
S214081EE0EBE008225E4B9A605E4D00240127604EA8
S214081EF00134E4B2284639462246B0471835032C42
S214081F00F6D15D4B9847564B1A6822F07F021A6046
S214081F101A6842F080021A6056490A6822F4CB52C0
S214081F2022F01C0242F030020A600A6842F00202FE
S214081F300A60DA6942F00102DA61EFF3108272B6DB
S214081F40BFF35F8F00204D4908704249042008609F
S214081F50022008604FF4805199612AB90122474B44
S214081F601A70BFF35F8F62B6454B9847BDE8F0819D
S214081F703B4B1B6913F0010F1AD0394B5B6813F003
S214081F80010F15D0364BD3F8002822F48042C3F848
S214081F90002801225A6110229A61D3F8002842F4D8
S214081FA08042C3F800280020364B9847BDE8F081E9
S214081FB02B4B1B6913F0100F1FD0294B5B6813F0CF
S214081FC0100F1AD0264AD2F8003823F48043C2F8F5
S214081FD00038134603E05A6812F0010F04D1D3F80C
S214081FE0042812F4804FF6D01D4B10225A610120A7
S214081FF09861244B9847BDE8F081194BD3F804380C
S21408200013F0020F60D0164BD3F8002822F4804253
S214082010C3F800280222C3F80828D3F8002842F498
S2140820208042C3F80028D3F8043813F4006F14BFAE
S214082030154B164B98470A4BD3F80408C0F3C02034
S214082040134B9847BDE8F08130C10A4060C10A408A
S2140820504D0C0720F0C10A407514080000C30A405A
S21408206000C00A40000C07206116080020C20A407B
S2140820702D16080000C10A40BD080800D801072030
S21408208011140800F9170800091A0800851A08002C
S214082090F52A08000D4B1B68C3F30A53082B7FF478
S2140820A055AD0B4A0B4B0C4857E50C4901230C4C15
S2140820B04FF0007E4FF4805C93E6094B5B6813F0A4
S2140820C0080F3FF455AF0CE7BDE8F08130C10A4071
S2140820D09B0C0720000018200800182034C10A406E
S2140820E000C00A4000207047084B1A6822F0800299
S2140820F01A601A6800F07F0022F07F0202431A6016
S2140821001A6842F080021A60704700BF00C00A4092
S214082110024B186800F07F00704700BF00C00A40F6
S214082120024B186AC0F3CA00704700BF00C00A40D6
S214082130024B186AC0F30D00704700BF00C00A4083
S214082140014B9860998170479C0C072000F00F029D
S214082150032A21D870B51148C369012101FA02F48F
S21408216023EA0403C36100F5807050F8223023F098
S214082170020340F82230551E094C05FA01F670197C
S21408218004EBC000074B9847354404EBC504237D91
S2140821906FF38203237570BD704700BF00C00A4006
S2140821A0000C07202D16080000F00F00024B53F80D
S2140821B02000C0F3C0407047C0C10A4000F00F03BB
S2140821C0032B57D8324A52F8232012F4002F53D143
S2140821D030B4591E01EB41042E4A02EBC402127DAC
S2140821E012F0040F4AD112F0010F49D1EFF3108212
S2140821F0B2FA82F2520972B6BFF35F8F0025264CF8
S214082200257010F0800F1DD0244850F8230010F4D5
S214082210405F17D001EB41011E4800EBC101087D65
S21408222040F0040008754FF480511D4840F823100C
S21408223099401C4B99612AB301202070BFF35F8F29
S21408224062B622E0184850F8231021F4007140F8CE
S21408225023104020154941F823004FF40020903100
S21408226041F8230082B101200B4B1870BFF35F8F33
S21408227062B60AE00020704701207047012004E09B
S214082280002002E0012000E0012030BC704700BFBB
S214082290C0C10A40000C0720D801072030C10A40F8
S2140822A0F0C10A4000C00A4000C10A4060C10A40A6
S2140822B010B500F00F0003284ED8431E03EB430169
S2140822C02C4A02EBC102127D12F0040F48D00A46CF
S2140822D0284901EBC202117D6FF382011175820055
S2140822E04FF48051244C44F820108140A4F508741B
S2140822F06161224951F8201011F4002F14D02049AA
S214082300515811F0400F06D040201E4950504FF447
S2140823108020903150504FF40020174950501A48EA
S214082320115841F40071115003EB4302114901EBB7
S214082330C202127D12F0010F10D008465900CA18C2
S21408234000EBC202147D6FF3000414750B4450F8BA
S21408235033309847012010BD002010BD012010BD65
S2140823608200064951F8201011F4002FC7D1012029
S21408237010BD00BF000C072020C20A40C0C10A409A
S21408238030C10A4060C10A4000C10A4000F00F0090
S214082390032863D8F8B5364CE569012484402C42F6
S2140823A05ED0344C54F8204014F4002F5AD1441E02
S2140823B004EB4406304D05EBC6052D7D15F0040FDD
S2140823C052D1EFF31085B5FA85F56D0972B6BFF3ED
S2140823D05F8F0027294E377004EB4406264F07EB1D
S2140823E0C606367D16F0010F09D0002D3ED0012214
S2140823F0224B1A70BFF35F8F62B60020F8BD04EB5D
S21408240044061D4F07EBC606377D47F001073775AC
S2140824102DB10126194D2E70BFF35F8F62B6164F89
S21408242004EB4405ED007E197260B3600022F2608A
S2140824303261069A7A5119B9B3FA83F35B0900E058
S214082440012304EB44040C4A02EBC404227D63F324
S214082450410222750A4B98470120F8BD00207047B4
S2140824600020F8BD0020F8BD0020F8BD0020F8BD0B
S21408247000C00A40C0C10A40000C0720D801072047
S214082480611608002DE9F04782B000F00F04032C0F
S21408249000F2E3807A4BDD6927460123A3402B40F0
S2140824A040F0DD8011F0030500F0DB80022D05D931
S2140824B0032D40F0D6804FF0000C01E04FF0010CE1
S2140824C04FEA840E6F4E56F8245025F4CB5525F067
S2140824D01C05C90201F4C05100F08000002818BF8E
S2140824E04FF48073A2F5806080B2B0F57C4F04D3B9
S2140824F0082A05D95200013A03E040F2FF7200E0CC
S2140825000F22B2FA82F241EA8C0C4CEA0303C2F1BB
S2140825101C0243EA021222F4D06222F00302D2041A
S214082520D20C2A434EF806200126BE40B6B2022C2C
S21408253000F29D80544A032351480127C56907FACB
S21408254003F1294209D00E43B6B2C56925EA01014E
S214082550C161116821F002011160013B043AD9B249
S2140825608C42EBD383E046FA04F313F0010F6ED0E7
S21408257004F1FF3E0EEB4E0307EBC3031A7D02F091
S21408258001016FF300021A75A00000EB050C55F860
S214082590243043F0020345F82430DFF8E490D9F8F5
S2140825A01C200123A3401343C9F81C3058F82430D4
S2140825B013F4802F19D10EEB4E03344A52F83350D9
S2140825C0002D50D0DCF8003013F4807F18BF44F09C
S2140825D080040EEB4E0E2D4B03EBCE0E0120DEF8DC
S2140825E00C102246A847002046E055F8243043F44D
S2140825F0007345F8243051B30EEB4E0207EBC202C7
S21408260002F10801D36812699B1A4B60425912F40A
S214082610807F14BF44F0800AA2464FEA4E0909EBB1
S2140826200E0C07EBCC0C9CF81410DCF80420DCF835
S21408263008C0CE4457F83E0000905046C1F340010B
S2140826401A44C3EB0C03DFF848C0E04768B101340E
S214082650E4B2042C87D101200EE000200CE0002014
S2140826600AE0002008E0002006E0002004E0074F0B
S214082670044DDFF8208076E702B0BDE8F08700BF9B
S21408268000C00A4000C10A400CC10A40000C0720DE
S2140826908D23080030C10A4070B500F00F02541EA2
S2140826A04FF00073A34015494B61154B03EB02131B
S2140826B000259D604FF4805393404B6110F0800FC7
S2140826C013D093000F4818440F4D1D444FF400567E
S2140826D001F5E071194404E02E600B6813F4005FFE
S2140826E0FBD1036813F4405FF6D104EB44040748B3
S2140826F000EBC4000121064B984770BD00C00A4095
S21408270000C30A4030C10A40F0C10A40000C072046
S2140827102D16080010B40B0193420FD91CE002F0E6
S2140827200702416841F40021416043EA024202621E
S21408273000201EE001201CE001201AE0D20002EB77
S2140827405302B2FBF3F2D3085C1E4FF6FE718C42BE
S214082750F0D802F00702E8E7C900D20002EB5102FF
S214082760B2FBF1F2D3085C1E4FF6FE718C42D6D946
S214082770E2E75DF8044B7047084BC0F8E4300023E6
S21408278043604362836288230360242303604FF414
S214082790807303604FF4002303607047004153556D
S2140827A070B505460C4616460F4B984700220F4B49
S2140827B01A609CB12846216832460D4B9847024657
S2140827C070B9A1686368194323691943E3680B4322
S2140827D006490B6069680B436B6002E0012200E063
S2140827E00122104670BD00BF79270800540C072048
S2140827F01527080040230360704700BF4FF40043C6
S21408280043607047FEE700BF08B51F4B1F4A9A4251
S21408281003D01F4B1C4A9A4204D31E4B1E4A9A42A8
S21408282010D31BE018490A1D1C4B9B1A23F0030300
S2140828300433164A134452F8040B41F8040B9A4220
S214082840F9D1EAE7164B174AD21A22F003021A44BD
S214082850043B002143F8041B9342FBD1124B23F0A0
S214082860604222F07F0211498A6003F16043B3F5A3
S214082870801F03D28B6843F000538B600C4B98473D
S2140828800C4B9847FEE700BF000007208C34080072
S2140828901C0A0720B80C07201C0A07201F0A072056
S2140828A0200A0720BB0C07200000080000ED00E007
S2140828B0212B0800092A08003E4B1B6B03F0030374
S2140828C0032B5FD8DFE803F0020E2B2B3A4B5B692D
S2140828D013F0800F14BF4FF400424FF4FA42374B00
S2140828E01A604FE0334B1B6A13F0807F03D0344ADC
S2140828F0324B1A6046E0334A304B1A602D4B1B6A3F
S21408290003F07003102B02D0202B04D03AE02E4A96
S2140829102A4B1A6036E02A4A284B1A6032E0254BC2
S2140829201B6A13F0807F03D0254A244B1A6012E0F6
S214082930244A224B1A601F4B1B6A03F07003102BA5
S21408294002D0202B04D006E01F4A1C4B1A6002E077
S2140829501B4A1A4B1A60174B1B6B03F00303022B18
S2140829600DD1144A936A926A1448C3F30A4103685D
S21408297001FB0333D2B2B3FBF2F3036002E0134A5F
S2140829800E4B1A600B4B1B6B03F07003702B07D1B2
S2140829900A4A13680E49A1FB03135B0813607047C5
S2140829A0044B1A6B0549C2F302120B68D3400B603E
S2140829B0704700BF00060E40101A0E40DC010720C4
S2140829C0001BB70000093D0000127A00001C4E0EDE
S2140829D0ABAAAAAA094B1B6813B9094A074B1A607F
S2140829E0064B1B681A180749914204DB1046034A2F
S2140829F01060184670474FF0FF307047580C072095
S214082A00B82C0720FC7F082080B52B4B98472B4B0B
S214082A10984701202A4FB8472A4D28462A4CA047EF
S214082A2001202A4EB0472846A0470120B847284626
S214082A30A0470120B0470820B847254D2846A0479C
S214082A404020B8472846A0474020B0472846A04719
S214082A504FF48070B8472846A0474FF48070B047B8
S214082A602846A0474FF40070B8472846A0474FF4BA
S214082A700070B0472846A0478020B8472846A04799
S214082A808020B0472846A0474FF48060B8472846BD
S214082A90A0474FF48060B0470820B0470D4D0E4C55
S214082AA06120A84723781BB10420054B9847F7E711
S214082AB00420B047F4E700BF790F0800D5120800D5
S214082AC009110800E09304000100072021110800FE
S214082AD0C0270900190708005C0C07200120014BD5
S214082AE0187070475C0C07200022014B1A7070475C
S214082AF05C0C072008B528B10220054B9847054B03
S214082B00984708BD0220044B9847044B984708BDD1
S214082B1009110800091A080021110800851A08007A
S214082B2070B50F4E0F4D761BB61018BF002405D093
S214082B30013455F8043B9847A642F9D10A4E0B4D86
S214082B4000F092FC761BB61018BF002406D001349D
S214082B5055F8043B9847A642F9D170BD70BD00BF32
S214082B6074340800743408007C3408007434080090
S214082B70024B13B1024800F005B870470000000089
S214082B80912B0800014600200246034600F0E0BBF1
S214082B9038B5084B084DED1AAC1018BFED1805D01F
S214082BA0013C55F8043D9847002CF9D1BDE838405B
S214082BB000F064BC883408008C340800F8B50C466D
S214082BC0224F064600F0AEFBBB685D6825F003059D
S214082BD0291B01F6EF7121F47F6121F00F01A1F5A1
S214082BE08054B4F5805F07DB3046002100F09EFB7A
S214082BF0BB682B44984204D0304600F095FB002072
S214082C00F8BD3046614200F091FB01300DD0104B04
S214082C10BA6819682D1B45F001053046091B556032
S214082C20196000F081FB0120F8BD3046002100F055
S214082C307DFBBA68831A0F2BDEDD064C0449246830
S214082C4043F00103001B53600860D5E70C06072015
S214082C506C0C0720180A072000294ED02DE9F041F1
S214082C600C46804600F05EFB54F8047C6249A4F1EA
S214082C70080527F00102AB188E6858689E4220F0B7
S214082C8003005AD0FE0758600BD454F8087C01F1AC
S214082C90080EED1BAC683A44744567D0EF68E760E9
S214082CA0BC601C186468E4070CD4544F9C68024443
S214082CB0BC427CD0D86842F00103E06084606B6058
S214082CC0AA5003E042F001036B60AA50B2F5007FF9
S214082CD014D2D20801EBC20301244868921004FA01
S214082CE002F29C681043AC60EB6048609D60E5604B
S214082CF04046BDE8F04100F017BB7047530A042B66
S214082D0047D8930903F13804600001EB8000836814
S214082D103949834243D0596821F00301914202D9C8
S214082D209B689842F7D1DA68EA60AB6040469560DF
S214082D30DD60BDE8F04100F0F7BAFF07024407D4AB
S214082D4054F8084C2D1BEB68A8682244C3609860AA
S214082D502B4B42F001001B6868609A428D60C7D30F
S214082D60284B40461968FFF729FFC1E71918496834
S214082D70C90709D4D96802449B6842F00100D960A3
S214082D808B606860AA50B3E742F001036B60AA50F4
S214082D90AEE7142B14D803F15B046000B5E74A6865
S214082DA0A4100120A04002434A601A46BCE742F03D
S214082DB001034D610D61EC60AC606B60AA5097E74B
S214082DC0542B04D8130B03F16E0460009DE7B3F58B
S214082DD0AA7F04D8D30B03F17704600095E740F286
S214082DE05450834204D8930C03F17C0460008CE7AB
S214082DF0FC207E2489E700BF0C060720140607205F
S214082E00140A0720680C0720024B0146186800F0D1
S214082E1003B800BF080607202DE9F04F01F10B059F
S214082E20162D83B0064627D935F0070500F1B6807B
S214082E30A94200F2B38000F075FAB5F5FC7F22D2FD
S214082E40BC4FE80807EBC003DC689C4200F0BC8176
S214082E506368E16823F0030323445A68A56842F0D0
S214082E600102E96030468D605A6000F05DFA083469
S214082E70204603B0BDE8F08F102900F28F8000F0DE
S214082E8051FA1025DCE7680A00F08F80042800F263
S214082E904781A80938304100A64F07EB8101CC6866
S214082EA0A14206D10CE0002A80F28280E468A142A2
S214082EB006D0636823F003035A1B0F2AF3DD013894
S214082EC001309C493C6901F1080E744500F0718197
S214082ED0636823F003035A1B0F2A00F35781002A5E
S214082EE0C1F814E0C1F810E066DAB3F5007F80F0A8
S214082EF02D81DB0801EBC3084FEAA30C4A680123BF
S214082F0003FA0CF3D8F808C01343C4F808C0C4F88A
S214082F100C804B60C8F80840CCF80C40821001249E
S214082F2094409C4255D8234206D120F00300640002
S214082F30234200F10400FAD007EBC008C4468146D5
S214082F40DCF80C309C4507D135E1002980F2458134
S214082F50DB689C4500F02F815A6822F00302511B5B
S214082F600F29F2DD1C46DA6854F808CF45F0010947
S214082F7041F001081D44C3F804903046CCF80C20F4
S214082F80C2F808C07D613D61C5F80CE0C5F808E0E8
S214082F90C5F80480695000F0C7F969E700242046A0
S214082FA00C23336003B0BDE8F08F7E213F2073E723
S214082FB023445A68E16851E723445A68304642F089
S214082FC001025A60083400F0AFF9204603B0BDE8A5
S214082FD0F08FBC68636823F00308454504D8C5EB42
S214082FE008030F2B00F38C80534BDFF85CA11A689C
S214082FF0DAF800302A44013304EB080B00F051815C
S21408300002F580520F3222F47F6222F00F02114638
S2140830103046019200F08AF9B0F1FF3F8146019AE6
S21408302000F04881834500F2EF80444BCB45196891
S2140830301144196000F04381DAF80000DFF808E16F
S21408304001301BBFCBEB090B5944CEF80090196032
S21408305019F0070100F00881C1F10800C1F5805198
S214083060814408314A44C2F30B02C2EB010A5146B6
S2140830703046019300F05AF9431C019B00F02D815D
S214083080C9EB0002524442F001021968BC4251449E
S214083090C7F808901960C9F80420DFF8A0A016D071
S2140830A0B8F10F0F40F2EF806268A8F10C0323F026
S2140830B0070302F00102E0184FF0050E1A430F2B23
S2140830C06260C0F804E0C0F808E000F20A811C4B11
S2140830D0BC681A68914288BF19601A4B1A689142F0
S2140830E0626888BF196022F003029542A2EB0503C6
S2140830F001D80F2B04DC304600F016F90024B7E69A
S21408310045F0010243F00103254462603046BD6085
S21408311008346B6000F008F9204603B0BDE8F08F6D
S214083120142869D9542800F29880280B6E3041007C
S214083130B2E600BF0C060720680C07206C0C0720B8
S214083140640C0720600C0720180A07205A0A042A6D
S21408315055D9142A00F2A7805B324FEA420C07EBD7
S2140831608C0CDCF80810DFF8B88161457FD04A6817
S21408317022F00302934202D289688C45F7D1CA68C6
S2140831807B68E260A1609460CC60C7E645F0010702
S21408319042F001032544676030464D610D61C5F86D
S2140831A00CE0C5F808E06B60AA50083400F0BCF8DC
S2140831B05EE64B68B2E609F1010919F0030F0CF157
S2140831C0080C7FF4BDAE2CE004F108036469A34242
S2140831D008BF02303FF475AE3AE61C461A445168FA
S2140831E0DB6854F8085F41F0010151603046EB6037
S2140831F09D6000F099F83BE65B3041004CE69A0982
S21408320038324FEA420CAAE7BC42454B3FF40DAFB2
S2140832109C68626822F0030267E7D8F80080984541
S2140832207CD110F0030FA8F1080300F1FF30F4D1A9
S2140832307B6823EA04037B6064009C423FF6C9AEC1
S214083240002C3FF4C6AE234248467FF475AE6400B1
S214083250234200F10400FAD06EE6B0F5AA7F18D82B
S214083260E80B7730410017E64FF48051FAE6D8F8B5
S214083270043092104FF0010C0CFA02F21343C8F80F
S21408328004300A467DE70123C9F804304C4600227C
S2140832902BE740F2545398421CD8A80C7C304100C7
S2140832A0FAE51032B3E6542A23D81A0B6E324FEAE0
S2140832B0420C54E7BC68626822F0030215E7CBF3B9
S2140832C00B0000287FF4B8AE4244BB6842F0010207
S2140832D05A60FCE6FC217E20DEE501224FF0000A5B
S2140832E0D3E604F108013046FFF7B6FCDAF800101A
S2140832F0EDE6B2F5AA7F04D8DA0B77324FEA420C2D
S2140833002DE740F254518A4204D89A0C7C324FEA90
S214083310420C24E74FF0FC0C7E2220E77B688BE704
S2140833200C060720704700BF704700BF38B5074C2B
S2140833300023054608462360FFF74CFB431C00D0D5
S21408334038BD2368002BFBD02B6038BDB40C072093
S2140833502DE9F047254C064625688846D5F84841A5
S21408336092469946C4B360681F2817DC411C76B19C
S21408337004EB8003C3F888A0D4F888510122824061
S2140833801543022EC4F88851C3F808911ED0831C32
S2140833906160002044F82380BDE8F087144B03B32F
S2140833A04FF4C870FFF730FD0446D0B1D5F8483161
S2140833B0002784E888003846C5F848410121C4F843
S2140833C08871C4F88C71002EE1D0D1E7D4F88C311E
S2140833D01A43C4F88C21DAE705F5A674C5F84841FF
S2140833E0C1E74FF0FF30BDE8F08700BF643408003F
S2140833F0092E080008030202034B090203030243CE
S2140834000A03030303460B04030304480C030404DB
S21408341004430D040404044D0E04040504400F047C
S214083420050504431005050504451106050504476A
S2140834301205060604431306060604441407060681
S214083440044615080606044716070707044417081F
S2140834500807044618070808044319080808044417
S21408346043000000E0010720F8B500BFF8BC08BC20
S2140834709E467047712B080019010800F8B500BF72
S210083480F8BC08BC9E467047F500080023
S21408348CBFF35F8F0138FBD1704700BF4FF48063E2
S21408349C204A136002F5007213601F4B1B6A13F068
S2140834AC807F07D11D4A1C4B1A621A46936E13F07E
S2140834BC010FFBD01A4A184B1A621A46936E13F46D
S2140834CC803FFBD0144A136B23F0030343F001032D
S2140834DC1363936E13F0080FFBD0124A0E4B9A62C6
S2140834EC1A46936E13F0020FFBD011220A4B1A637E
S2140834FC1A46936E13F0080FFBD01222064B1A636B
S21408350C1A46936E13F0080FFBD0074A074B1A603F
S21408351C704700BF000A0E4000060E400908370028
S21408352C09083701013F0D2000BD0105DC01072005
S21408353C1B4B984206D800231A4A136002F50072F1
S21408354C13607047184B984207D84FF48073154A87
S21408355C136002F5007213607047144B984207D834
S21408356C4FF400730F4A136002F50072136070472D
S21408357C0F4B984207D84FF440730A4A136002F56B
S21408358C0072136070470B4B984294BF4FF48063DD
S21408359C4FF4A063034A136002F500721360704779
S2140835ACBFEA2101000A0E407FF0FA02FF8FD00313
S2140835BCFFB3C4047F4A5D0515050800D903080047
S2140835CC6101080065010800C9030800F10108003C
S2140835DC5101080069010800650108000000000098
S2140835EC7C01072074010720000000004C0107200E
S2140835FC38010720900107206C01072012010002F1
S21408360C02000040EB030424000100000001000047
S21408361C09024300020100C032090400000102023C
S21408362C01000524001001042402020524060001EA
S21408363C0524010301070583034000100904010053
S21408364C020A000000070581024000000705020276
S21408365C40000000040309040100000000093D00B6
S21408366C00000000CC040720340507209C05072022
S21408367C0000000000000000000000000000000031
S21408368C0000000000000000000000000000000021
S21408369C0000000060340800000000000000000075
S2140836AC0000000000000000000000000000000001
S2140836BC00000000000000000000000000000000F1
S2140836CC00000000000000000000000000000000E1
S2140836DC00000000000000000000000000000000D1
S2140836EC00000000000000000000000000000000C1
S2140836FC00000000000000000000000000000000B1
S21408370C000000000000000001000000000000009F
S21408371C0E33CDAB34126DE6ECDE05000B00000064
S21408372C0000000000000000000000000000000080
S21408373C0000000000000000000000000000000070
S21408374C0000000000000000000000000000000060
S21408375C0000000000000000000000000000000050
S214083A8C0000000000000000E00107200000000015
S214083A9C000000000C0607200C060720140607205A
S214083AAC140607201C0607201C06072024060720D9
S214083ABC240607202C0607202C0607203406072089
S214083ACC340607203C0607203C0607204406072039
S214083ADC440607204C0607204C06072054060720E9
S214083AEC540607205C0607205C0607206406072099
S214083AFC640607206C0607206C0607207406072049
S214083B0C740607207C0607207C06072084060720F8
S214083B1C840607208C0607208C06072094060720A8
S214083B2C940607209C0607209C060720A406072058
S214083B3CA4060720AC060720AC060720B406072008
S214083B4CB4060720BC060720BC060720C4060720B8
S214083B5CC4060720CC060720CC060720D406072068
S214083B6CD4060720DC060720DC060720E406072018
S214083B7CE4060720EC060720EC060720F4060720C8
S214083B8CF4060720FC060720FC0607200407072077
S214083B9C040707200C0707200C0707201407072024
S214083BAC140707201C0707201C07072024070720D4
S214083BBC240707202C0707202C0707203407072084
S214083BCC340707203C0707203C0707204407072034
S214083BDC440707204C0707204C07072054070720E4
S214083BEC540707205C0707205C0707206407072094
S214083BFC640707206C0707206C0707207407072044
S214083C0C740707207C0707207C07072084070720F3
S214083C1C840707208C0707208C07072094070720A3
S214083C2C940707209C0707209C070720A407072053
S214083C3CA4070720AC070720AC070720B407072003
S214083C4CB4070720BC070720BC070720C4070720B3
S214083C5CC4070720CC070720CC070720D407072063
S214083C6CD4070720DC070720DC070720E407072013
S214083C7CE4070720EC070720EC070720F4070720C3
S214083C8CF4070720FC070720FC0707200408072072
S214083C9C040807200C0807200C080720140807201F
S214083CAC140807201C0807201C08072024080720CF
S214083CBC240807202C0807202C080720340807207F
S214083CCC340807203C0807203C080720440807202F
S214083CDC440807204C0807204C08072054080720DF
S214083CEC540807205C0807205C080720640807208F
S214083CFC640807206C0807206C080720740807203F
S214083D0C740807207C0807207C08072084080720EE
S214083D1C840807208C0807208C080720940807209E
S214083D2C940807209C0807209C080720A40807204E
S214083D3CA4080720AC080720AC080720B4080720FE
S214083D4CB4080720BC080720BC080720C4080720AE
S214083D5CC4080720CC080720CC080720D40807205E
S214083D6CD4080720DC080720DC080720E40807200E
S214083D7CE4080720EC080720EC080720F4080720BE
S214083D8CF4080720FC080720FC080720040907206D
S214083D9C040907200C0907200C090720140907201A
S214083DAC140907201C0907201C09072024090720CA
S214083DBC240907202C0907202C090720340907207A
S214083DCC340907203C0907203C090720440907202A
S214083DDC440907204C0907204C09072054090720DA
S214083DEC540907205C0907205C090720640907208A
S214083DFC640907206C0907206C090720740907203A
S214083E0C740907207C0907207C09072084090720E9
S214083E1C840907208C0907208C0907209409072099
S214083E2C940907209C0907209C090720A409072049
S214083E3CA4090720AC090720AC090720B4090720F9
S214083E4CB4090720BC090720BC090720C4090720A9
S214083E5CC4090720CC090720CC090720D409072059
S214083E6CD4090720DC090720DC090720E409072009
S214083E7CE4090720EC090720EC090720F4090720B9
S214083E8CF4090720FC090720FC090720040A072068
S210083E9C040A072000000200FFFFFFFFDA
S804082809C2
